{
  "_format": "hh-sol-artifact-1",
  "contractName": "MyNFT",
  "sourceName": "contracts/MyNTF.sol",
  "abi": [
    {
      "inputs": [],
      "stateMutability": "nonpayable",
      "type": "constructor"
    },
    {
      "inputs": [
        {
          "internalType": "address",
          "name": "sender",
          "type": "address"
        },
        {
          "internalType": "uint256",
          "name": "tokenId",
          "type": "uint256"
        },
        {
          "internalType": "address",
          "name": "owner",
          "type": "address"
        }
      ],
      "name": "ERC721IncorrectOwner",
      "type": "error"
    },
    {
      "inputs": [
        {
          "internalType": "address",
          "name": "operator",
          "type": "address"
        },
        {
          "internalType": "uint256",
          "name": "tokenId",
          "type": "uint256"
        }
      ],
      "name": "ERC721InsufficientApproval",
      "type": "error"
    },
    {
      "inputs": [
        {
          "internalType": "address",
          "name": "approver",
          "type": "address"
        }
      ],
      "name": "ERC721InvalidApprover",
      "type": "error"
    },
    {
      "inputs": [
        {
          "internalType": "address",
          "name": "operator",
          "type": "address"
        }
      ],
      "name": "ERC721InvalidOperator",
      "type": "error"
    },
    {
      "inputs": [
        {
          "internalType": "address",
          "name": "owner",
          "type": "address"
        }
      ],
      "name": "ERC721InvalidOwner",
      "type": "error"
    },
    {
      "inputs": [
        {
          "internalType": "address",
          "name": "receiver",
          "type": "address"
        }
      ],
      "name": "ERC721InvalidReceiver",
      "type": "error"
    },
    {
      "inputs": [
        {
          "internalType": "address",
          "name": "sender",
          "type": "address"
        }
      ],
      "name": "ERC721InvalidSender",
      "type": "error"
    },
    {
      "inputs": [
        {
          "internalType": "uint256",
          "name": "tokenId",
          "type": "uint256"
        }
      ],
      "name": "ERC721NonexistentToken",
      "type": "error"
    },
    {
      "anonymous": false,
      "inputs": [
        {
          "indexed": true,
          "internalType": "address",
          "name": "owner",
          "type": "address"
        },
        {
          "indexed": true,
          "internalType": "address",
          "name": "approved",
          "type": "address"
        },
        {
          "indexed": true,
          "internalType": "uint256",
          "name": "tokenId",
          "type": "uint256"
        }
      ],
      "name": "Approval",
      "type": "event"
    },
    {
      "anonymous": false,
      "inputs": [
        {
          "indexed": true,
          "internalType": "address",
          "name": "owner",
          "type": "address"
        },
        {
          "indexed": true,
          "internalType": "address",
          "name": "operator",
          "type": "address"
        },
        {
          "indexed": false,
          "internalType": "bool",
          "name": "approved",
          "type": "bool"
        }
      ],
      "name": "ApprovalForAll",
      "type": "event"
    },
    {
      "anonymous": false,
      "inputs": [
        {
          "indexed": true,
          "internalType": "address",
          "name": "from",
          "type": "address"
        },
        {
          "indexed": true,
          "internalType": "address",
          "name": "to",
          "type": "address"
        },
        {
          "indexed": true,
          "internalType": "uint256",
          "name": "tokenId",
          "type": "uint256"
        }
      ],
      "name": "Transfer",
      "type": "event"
    },
    {
      "inputs": [
        {
          "internalType": "address",
          "name": "to",
          "type": "address"
        },
        {
          "internalType": "uint256",
          "name": "tokenId",
          "type": "uint256"
        }
      ],
      "name": "approve",
      "outputs": [],
      "stateMutability": "nonpayable",
      "type": "function"
    },
    {
      "inputs": [
        {
          "internalType": "address",
          "name": "owner",
          "type": "address"
        }
      ],
      "name": "balanceOf",
      "outputs": [
        {
          "internalType": "uint256",
          "name": "",
          "type": "uint256"
        }
      ],
      "stateMutability": "view",
      "type": "function"
    },
    {
      "inputs": [
        {
          "internalType": "uint256",
          "name": "tokenId",
          "type": "uint256"
        }
      ],
      "name": "getApproved",
      "outputs": [
        {
          "internalType": "address",
          "name": "",
          "type": "address"
        }
      ],
      "stateMutability": "view",
      "type": "function"
    },
    {
      "inputs": [
        {
          "internalType": "address",
          "name": "owner",
          "type": "address"
        },
        {
          "internalType": "address",
          "name": "operator",
          "type": "address"
        }
      ],
      "name": "isApprovedForAll",
      "outputs": [
        {
          "internalType": "bool",
          "name": "",
          "type": "bool"
        }
      ],
      "stateMutability": "view",
      "type": "function"
    },
    {
      "inputs": [
        {
          "internalType": "address",
          "name": "recipient",
          "type": "address"
        }
      ],
      "name": "mintNFT",
      "outputs": [],
      "stateMutability": "nonpayable",
      "type": "function"
    },
    {
      "inputs": [],
      "name": "name",
      "outputs": [
        {
          "internalType": "string",
          "name": "",
          "type": "string"
        }
      ],
      "stateMutability": "view",
      "type": "function"
    },
    {
      "inputs": [
        {
          "internalType": "uint256",
          "name": "tokenId",
          "type": "uint256"
        }
      ],
      "name": "ownerOf",
      "outputs": [
        {
          "internalType": "address",
          "name": "",
          "type": "address"
        }
      ],
      "stateMutability": "view",
      "type": "function"
    },
    {
      "inputs": [
        {
          "internalType": "address",
          "name": "from",
          "type": "address"
        },
        {
          "internalType": "address",
          "name": "to",
          "type": "address"
        },
        {
          "internalType": "uint256",
          "name": "tokenId",
          "type": "uint256"
        }
      ],
      "name": "safeTransferFrom",
      "outputs": [],
      "stateMutability": "nonpayable",
      "type": "function"
    },
    {
      "inputs": [
        {
          "internalType": "address",
          "name": "from",
          "type": "address"
        },
        {
          "internalType": "address",
          "name": "to",
          "type": "address"
        },
        {
          "internalType": "uint256",
          "name": "tokenId",
          "type": "uint256"
        },
        {
          "internalType": "bytes",
          "name": "data",
          "type": "bytes"
        }
      ],
      "name": "safeTransferFrom",
      "outputs": [],
      "stateMutability": "nonpayable",
      "type": "function"
    },
    {
      "inputs": [
        {
          "internalType": "address",
          "name": "operator",
          "type": "address"
        },
        {
          "internalType": "bool",
          "name": "approved",
          "type": "bool"
        }
      ],
      "name": "setApprovalForAll",
      "outputs": [],
      "stateMutability": "nonpayable",
      "type": "function"
    },
    {
      "inputs": [
        {
          "internalType": "bytes4",
          "name": "interfaceId",
          "type": "bytes4"
        }
      ],
      "name": "supportsInterface",
      "outputs": [
        {
          "internalType": "bool",
          "name": "",
          "type": "bool"
        }
      ],
      "stateMutability": "view",
      "type": "function"
    },
    {
      "inputs": [],
      "name": "symbol",
      "outputs": [
        {
          "internalType": "string",
          "name": "",
          "type": "string"
        }
      ],
      "stateMutability": "view",
      "type": "function"
    },
    {
      "inputs": [
        {
          "internalType": "uint256",
          "name": "tokenId",
          "type": "uint256"
        }
      ],
      "name": "tokenURI",
      "outputs": [
        {
          "internalType": "string",
          "name": "",
          "type": "string"
        }
      ],
      "stateMutability": "view",
      "type": "function"
    },
    {
      "inputs": [
        {
          "internalType": "address",
          "name": "from",
          "type": "address"
        },
        {
          "internalType": "address",
          "name": "to",
          "type": "address"
        },
        {
          "internalType": "uint256",
          "name": "tokenId",
          "type": "uint256"
        }
      ],
      "name": "transferFrom",
      "outputs": [],
      "stateMutability": "nonpayable",
      "type": "function"
    }
  ],
  "bytecode": "0x60806040523480156200001157600080fd5b506040518060400160405280600581526020017f4d794e46540000000000000000000000000000000000000000000000000000008152506040518060400160405280600581526020017f4d594e465400000000000000000000000000000000000000000000000000000081525081600090816200008f91906200032c565b508060019081620000a191906200032c565b505050600060068190555062000413565b600081519050919050565b7f4e487b7100000000000000000000000000000000000000000000000000000000600052604160045260246000fd5b7f4e487b7100000000000000000000000000000000000000000000000000000000600052602260045260246000fd5b600060028204905060018216806200013457607f821691505b6020821081036200014a5762000149620000ec565b5b50919050565b60008190508160005260206000209050919050565b60006020601f8301049050919050565b600082821b905092915050565b600060088302620001b47fffffffffffffffffffffffffffffffffffffffffffffffffffffffffffffffff8262000175565b620001c0868362000175565b95508019841693508086168417925050509392505050565b6000819050919050565b6000819050919050565b60006200020d620002076200020184620001d8565b620001e2565b620001d8565b9050919050565b6000819050919050565b6200022983620001ec565b62000241620002388262000214565b84845462000182565b825550505050565b600090565b6200025862000249565b620002658184846200021e565b505050565b5b818110156200028d57620002816000826200024e565b6001810190506200026b565b5050565b601f821115620002dc57620002a68162000150565b620002b18462000165565b81016020851015620002c1578190505b620002d9620002d08562000165565b8301826200026a565b50505b505050565b600082821c905092915050565b60006200030160001984600802620002e1565b1980831691505092915050565b60006200031c8383620002ee565b9150826002028217905092915050565b6200033782620000b2565b67ffffffffffffffff811115620003535762000352620000bd565b5b6200035f82546200011b565b6200036c82828562000291565b600060209050601f831160018114620003a457600084156200038f578287015190505b6200039b85826200030e565b8655506200040b565b601f198416620003b48662000150565b60005b82811015620003de57848901518255600182019150602085019450602081019050620003b7565b86831015620003fe5784890151620003fa601f891682620002ee565b8355505b6001600288020188555050505b505050505050565b611e4c80620004236000396000f3fe608060405234801561001057600080fd5b50600436106100ea5760003560e01c80636352211e1161008c578063a22cb46511610066578063a22cb4651461025b578063b88d4fde14610277578063c87b56dd14610293578063e985e9c5146102c3576100ea565b80636352211e146101dd57806370a082311461020d57806395d89b411461023d576100ea565b8063095ea7b3116100c8578063095ea7b31461016d57806323b872dd1461018957806342842e0e146101a557806354ba0f27146101c1576100ea565b806301ffc9a7146100ef57806306fdde031461011f578063081812fc1461013d575b600080fd5b6101096004803603810190610104919061161f565b6102f3565b6040516101169190611667565b60405180910390f35b6101276103d5565b6040516101349190611712565b60405180910390f35b6101576004803603810190610152919061176a565b610467565b60405161016491906117d8565b60405180910390f35b6101876004803603810190610182919061181f565b610483565b005b6101a3600480360381019061019e919061185f565b610499565b005b6101bf60048036038101906101ba919061185f565b61059b565b005b6101db60048036038101906101d691906118b2565b6105bb565b005b6101f760048036038101906101f2919061176a565b6105e4565b60405161020491906117d8565b60405180910390f35b610227600480360381019061022291906118b2565b6105f6565b60405161023491906118ee565b60405180910390f35b6102456106b0565b6040516102529190611712565b60405180910390f35b61027560048036038101906102709190611935565b610742565b005b610291600480360381019061028c9190611aaa565b610758565b005b6102ad60048036038101906102a8919061176a565b610775565b6040516102ba9190611712565b60405180910390f35b6102dd60048036038101906102d89190611b2d565b6107de565b6040516102ea9190611667565b60405180910390f35b60007f80ac58cd000000000000000000000000000000000000000000000000000000007bffffffffffffffffffffffffffffffffffffffffffffffffffffffff1916827bffffffffffffffffffffffffffffffffffffffffffffffffffffffff191614806103be57507f5b5e139f000000000000000000000000000000000000000000000000000000007bffffffffffffffffffffffffffffffffffffffffffffffffffffffff1916827bffffffffffffffffffffffffffffffffffffffffffffffffffffffff1916145b806103ce57506103cd82610872565b5b9050919050565b6060600080546103e490611b9c565b80601f016020809104026020016040519081016040528092919081815260200182805461041090611b9c565b801561045d5780601f106104325761010080835404028352916020019161045d565b820191906000526020600020905b81548152906001019060200180831161044057829003601f168201915b5050505050905090565b6000610472826108dc565b5061047c82610964565b9050919050565b61049582826104906109a1565b6109a9565b5050565b600073ffffffffffffffffffffffffffffffffffffffff168273ffffffffffffffffffffffffffffffffffffffff160361050b5760006040517f64a0ae9200000000000000000000000000000000000000000000000000000000815260040161050291906117d8565b60405180910390fd5b600061051f838361051a6109a1565b6109bb565b90508373ffffffffffffffffffffffffffffffffffffffff168173ffffffffffffffffffffffffffffffffffffffff1614610595578382826040517f64283d7b00000000000000000000000000000000000000000000000000000000815260040161058c93929190611bcd565b60405180910390fd5b50505050565b6105b683838360405180602001604052806000815250610758565b505050565b6000600660008154809291906105d090611c33565b9190505590506105e08282610bd5565b5050565b60006105ef826108dc565b9050919050565b60008073ffffffffffffffffffffffffffffffffffffffff168273ffffffffffffffffffffffffffffffffffffffff16036106695760006040517f89c62b6400000000000000000000000000000000000000000000000000000000815260040161066091906117d8565b60405180910390fd5b600360008373ffffffffffffffffffffffffffffffffffffffff1673ffffffffffffffffffffffffffffffffffffffff168152602001908152602001600020549050919050565b6060600180546106bf90611b9c565b80601f01602080910402602001604051908101604052809291908181526020018280546106eb90611b9c565b80156107385780601f1061070d57610100808354040283529160200191610738565b820191906000526020600020905b81548152906001019060200180831161071b57829003601f168201915b5050505050905090565b61075461074d6109a1565b8383610cce565b5050565b610763848484610499565b61076f84848484610e3d565b50505050565b6060610780826108dc565b50600061078b610ff4565b905060008151116107ab57604051806020016040528060008152506107d6565b806107b58461100b565b6040516020016107c6929190611cb7565b6040516020818303038152906040525b915050919050565b6000600560008473ffffffffffffffffffffffffffffffffffffffff1673ffffffffffffffffffffffffffffffffffffffff16815260200190815260200160002060008373ffffffffffffffffffffffffffffffffffffffff1673ffffffffffffffffffffffffffffffffffffffff16815260200190815260200160002060009054906101000a900460ff16905092915050565b60007f01ffc9a7000000000000000000000000000000000000000000000000000000007bffffffffffffffffffffffffffffffffffffffffffffffffffffffff1916827bffffffffffffffffffffffffffffffffffffffffffffffffffffffff1916149050919050565b6000806108e8836110d9565b9050600073ffffffffffffffffffffffffffffffffffffffff168173ffffffffffffffffffffffffffffffffffffffff160361095b57826040517f7e27328900000000000000000000000000000000000000000000000000000000815260040161095291906118ee565b60405180910390fd5b80915050919050565b60006004600083815260200190815260200160002060009054906101000a900473ffffffffffffffffffffffffffffffffffffffff169050919050565b600033905090565b6109b68383836001611116565b505050565b6000806109c7846110d9565b9050600073ffffffffffffffffffffffffffffffffffffffff168373ffffffffffffffffffffffffffffffffffffffff1614610a0957610a088184866112db565b5b600073ffffffffffffffffffffffffffffffffffffffff168173ffffffffffffffffffffffffffffffffffffffff1614610a9a57610a4b600085600080611116565b6001600360008373ffffffffffffffffffffffffffffffffffffffff1673ffffffffffffffffffffffffffffffffffffffff168152602001908152602001600020600082825403925050819055505b600073ffffffffffffffffffffffffffffffffffffffff168573ffffffffffffffffffffffffffffffffffffffff1614610b1d576001600360008773ffffffffffffffffffffffffffffffffffffffff1673ffffffffffffffffffffffffffffffffffffffff168152602001908152602001600020600082825401925050819055505b846002600086815260200190815260200160002060006101000a81548173ffffffffffffffffffffffffffffffffffffffff021916908373ffffffffffffffffffffffffffffffffffffffff160217905550838573ffffffffffffffffffffffffffffffffffffffff168273ffffffffffffffffffffffffffffffffffffffff167fddf252ad1be2c89b69c2b068fc378daa952ba7f163c4a11628f55a4df523b3ef60405160405180910390a4809150509392505050565b600073ffffffffffffffffffffffffffffffffffffffff168273ffffffffffffffffffffffffffffffffffffffff1603610c475760006040517f64a0ae92000000000000000000000000000000000000000000000000000000008152600401610c3e91906117d8565b60405180910390fd5b6000610c55838360006109bb565b9050600073ffffffffffffffffffffffffffffffffffffffff168173ffffffffffffffffffffffffffffffffffffffff1614610cc95760006040517f73c6ac6e000000000000000000000000000000000000000000000000000000008152600401610cc091906117d8565b60405180910390fd5b505050565b600073ffffffffffffffffffffffffffffffffffffffff168273ffffffffffffffffffffffffffffffffffffffff1603610d3f57816040517f5b08ba18000000000000000000000000000000000000000000000000000000008152600401610d3691906117d8565b60405180910390fd5b80600560008573ffffffffffffffffffffffffffffffffffffffff1673ffffffffffffffffffffffffffffffffffffffff16815260200190815260200160002060008473ffffffffffffffffffffffffffffffffffffffff1673ffffffffffffffffffffffffffffffffffffffff16815260200190815260200160002060006101000a81548160ff0219169083151502179055508173ffffffffffffffffffffffffffffffffffffffff168373ffffffffffffffffffffffffffffffffffffffff167f17307eab39ab6107e8899845ad3d59bd9653f200f220920489ca2b5937696c3183604051610e309190611667565b60405180910390a3505050565b60008373ffffffffffffffffffffffffffffffffffffffff163b1115610fee578273ffffffffffffffffffffffffffffffffffffffff1663150b7a02610e816109a1565b8685856040518563ffffffff1660e01b8152600401610ea39493929190611d30565b6020604051808303816000875af1925050508015610edf57506040513d601f19601f82011682018060405250810190610edc9190611d91565b60015b610f63573d8060008114610f0f576040519150601f19603f3d011682016040523d82523d6000602084013e610f14565b606091505b506000815103610f5b57836040517f64a0ae92000000000000000000000000000000000000000000000000000000008152600401610f5291906117d8565b60405180910390fd5b805181602001fd5b63150b7a0260e01b7bffffffffffffffffffffffffffffffffffffffffffffffffffffffff1916817bffffffffffffffffffffffffffffffffffffffffffffffffffffffff191614610fec57836040517f64a0ae92000000000000000000000000000000000000000000000000000000008152600401610fe391906117d8565b60405180910390fd5b505b50505050565b606060405180602001604052806000815250905090565b60606000600161101a8461139f565b01905060008167ffffffffffffffff8111156110395761103861197f565b5b6040519080825280601f01601f19166020018201604052801561106b5781602001600182028036833780820191505090505b509050600082602001820190505b6001156110ce578080600190039150507f3031323334353637383961626364656600000000000000000000000000000000600a86061a8153600a85816110c2576110c1611dbe565b5b04945060008503611079575b819350505050919050565b60006002600083815260200190815260200160002060009054906101000a900473ffffffffffffffffffffffffffffffffffffffff169050919050565b808061114f5750600073ffffffffffffffffffffffffffffffffffffffff168273ffffffffffffffffffffffffffffffffffffffff1614155b1561128357600061115f846108dc565b9050600073ffffffffffffffffffffffffffffffffffffffff168373ffffffffffffffffffffffffffffffffffffffff16141580156111ca57508273ffffffffffffffffffffffffffffffffffffffff168173ffffffffffffffffffffffffffffffffffffffff1614155b80156111dd57506111db81846107de565b155b1561121f57826040517fa9fbf51f00000000000000000000000000000000000000000000000000000000815260040161121691906117d8565b60405180910390fd5b811561128157838573ffffffffffffffffffffffffffffffffffffffff168273ffffffffffffffffffffffffffffffffffffffff167f8c5be1e5ebec7d5bd14f71427d1e84f3dd0314c0f7b2291e5b200ac8c7c3b92560405160405180910390a45b505b836004600085815260200190815260200160002060006101000a81548173ffffffffffffffffffffffffffffffffffffffff021916908373ffffffffffffffffffffffffffffffffffffffff16021790555050505050565b6112e68383836114f2565b61139a57600073ffffffffffffffffffffffffffffffffffffffff168373ffffffffffffffffffffffffffffffffffffffff160361135b57806040517f7e27328900000000000000000000000000000000000000000000000000000000815260040161135291906118ee565b60405180910390fd5b81816040517f177e802f000000000000000000000000000000000000000000000000000000008152600401611391929190611ded565b60405180910390fd5b505050565b600080600090507a184f03e93ff9f4daa797ed6e38ed64bf6a1f01000000000000000083106113fd577a184f03e93ff9f4daa797ed6e38ed64bf6a1f01000000000000000083816113f3576113f2611dbe565b5b0492506040810190505b6d04ee2d6d415b85acef8100000000831061143a576d04ee2d6d415b85acef810000000083816114305761142f611dbe565b5b0492506020810190505b662386f26fc10000831061146957662386f26fc10000838161145f5761145e611dbe565b5b0492506010810190505b6305f5e1008310611492576305f5e100838161148857611487611dbe565b5b0492506008810190505b61271083106114b75761271083816114ad576114ac611dbe565b5b0492506004810190505b606483106114da57606483816114d0576114cf611dbe565b5b0492506002810190505b600a83106114e9576001810190505b80915050919050565b60008073ffffffffffffffffffffffffffffffffffffffff168373ffffffffffffffffffffffffffffffffffffffff16141580156115aa57508273ffffffffffffffffffffffffffffffffffffffff168473ffffffffffffffffffffffffffffffffffffffff16148061156b575061156a84846107de565b5b806115a957508273ffffffffffffffffffffffffffffffffffffffff1661159183610964565b73ffffffffffffffffffffffffffffffffffffffff16145b5b90509392505050565b6000604051905090565b600080fd5b600080fd5b60007fffffffff0000000000000000000000000000000000000000000000000000000082169050919050565b6115fc816115c7565b811461160757600080fd5b50565b600081359050611619816115f3565b92915050565b600060208284031215611635576116346115bd565b5b60006116438482850161160a565b91505092915050565b60008115159050919050565b6116618161164c565b82525050565b600060208201905061167c6000830184611658565b92915050565b600081519050919050565b600082825260208201905092915050565b60005b838110156116bc5780820151818401526020810190506116a1565b60008484015250505050565b6000601f19601f8301169050919050565b60006116e482611682565b6116ee818561168d565b93506116fe81856020860161169e565b611707816116c8565b840191505092915050565b6000602082019050818103600083015261172c81846116d9565b905092915050565b6000819050919050565b61174781611734565b811461175257600080fd5b50565b6000813590506117648161173e565b92915050565b6000602082840312156117805761177f6115bd565b5b600061178e84828501611755565b91505092915050565b600073ffffffffffffffffffffffffffffffffffffffff82169050919050565b60006117c282611797565b9050919050565b6117d2816117b7565b82525050565b60006020820190506117ed60008301846117c9565b92915050565b6117fc816117b7565b811461180757600080fd5b50565b600081359050611819816117f3565b92915050565b60008060408385031215611836576118356115bd565b5b60006118448582860161180a565b925050602061185585828601611755565b9150509250929050565b600080600060608486031215611878576118776115bd565b5b60006118868682870161180a565b93505060206118978682870161180a565b92505060406118a886828701611755565b9150509250925092565b6000602082840312156118c8576118c76115bd565b5b60006118d68482850161180a565b91505092915050565b6118e881611734565b82525050565b600060208201905061190360008301846118df565b92915050565b6119128161164c565b811461191d57600080fd5b50565b60008135905061192f81611909565b92915050565b6000806040838503121561194c5761194b6115bd565b5b600061195a8582860161180a565b925050602061196b85828601611920565b9150509250929050565b600080fd5b600080fd5b7f4e487b7100000000000000000000000000000000000000000000000000000000600052604160045260246000fd5b6119b7826116c8565b810181811067ffffffffffffffff821117156119d6576119d561197f565b5b80604052505050565b60006119e96115b3565b90506119f582826119ae565b919050565b600067ffffffffffffffff821115611a1557611a1461197f565b5b611a1e826116c8565b9050602081019050919050565b82818337600083830152505050565b6000611a4d611a48846119fa565b6119df565b905082815260208101848484011115611a6957611a6861197a565b5b611a74848285611a2b565b509392505050565b600082601f830112611a9157611a90611975565b5b8135611aa1848260208601611a3a565b91505092915050565b60008060008060808587031215611ac457611ac36115bd565b5b6000611ad28782880161180a565b9450506020611ae38782880161180a565b9350506040611af487828801611755565b925050606085013567ffffffffffffffff811115611b1557611b146115c2565b5b611b2187828801611a7c565b91505092959194509250565b60008060408385031215611b4457611b436115bd565b5b6000611b528582860161180a565b9250506020611b638582860161180a565b9150509250929050565b7f4e487b7100000000000000000000000000000000000000000000000000000000600052602260045260246000fd5b60006002820490506001821680611bb457607f821691505b602082108103611bc757611bc6611b6d565b5b50919050565b6000606082019050611be260008301866117c9565b611bef60208301856118df565b611bfc60408301846117c9565b949350505050565b7f4e487b7100000000000000000000000000000000000000000000000000000000600052601160045260246000fd5b6000611c3e82611734565b91507fffffffffffffffffffffffffffffffffffffffffffffffffffffffffffffffff8203611c7057611c6f611c04565b5b600182019050919050565b600081905092915050565b6000611c9182611682565b611c9b8185611c7b565b9350611cab81856020860161169e565b80840191505092915050565b6000611cc38285611c86565b9150611ccf8284611c86565b91508190509392505050565b600081519050919050565b600082825260208201905092915050565b6000611d0282611cdb565b611d0c8185611ce6565b9350611d1c81856020860161169e565b611d25816116c8565b840191505092915050565b6000608082019050611d4560008301876117c9565b611d5260208301866117c9565b611d5f60408301856118df565b8181036060830152611d718184611cf7565b905095945050505050565b600081519050611d8b816115f3565b92915050565b600060208284031215611da757611da66115bd565b5b6000611db584828501611d7c565b91505092915050565b7f4e487b7100000000000000000000000000000000000000000000000000000000600052601260045260246000fd5b6000604082019050611e0260008301856117c9565b611e0f60208301846118df565b939250505056fea2646970667358221220ae903de2434cb483657817ba4576ebcd9c77808af34875db6b83af096537555364736f6c63430008180033",
  "linkReferences": {},
  "deployedLinkReferences": {}
}